{
  "address": "0xbab7BB425B6EB0926b1429201aDD5e68E562C87f",
  "abi": [
    {
      "inputs": [
        {
          "internalType": "address",
          "name": "_owner",
          "type": "address"
        }
      ],
      "stateMutability": "nonpayable",
      "type": "constructor"
    },
    {
      "inputs": [],
      "name": "NotAuthorized",
      "type": "error"
    },
    {
      "inputs": [],
      "name": "WrongBlockNumber",
      "type": "error"
    },
    {
      "inputs": [],
      "name": "WrongProof",
      "type": "error"
    },
    {
      "inputs": [],
      "name": "last_committed_blocknumber",
      "outputs": [
        {
          "internalType": "uint256",
          "name": "",
          "type": "uint256"
        }
      ],
      "stateMutability": "view",
      "type": "function"
    },
    {
      "inputs": [],
      "name": "owner",
      "outputs": [
        {
          "internalType": "address",
          "name": "",
          "type": "address"
        }
      ],
      "stateMutability": "view",
      "type": "function"
    },
    {
      "inputs": [
        {
          "internalType": "uint256",
          "name": "new_root",
          "type": "uint256"
        },
        {
          "internalType": "uint256",
          "name": "_now",
          "type": "uint256"
        },
        {
          "internalType": "bytes",
          "name": "_proof",
          "type": "bytes"
        }
      ],
      "name": "publish_block",
      "outputs": [],
      "stateMutability": "nonpayable",
      "type": "function"
    },
    {
      "inputs": [],
      "name": "root",
      "outputs": [
        {
          "internalType": "uint256",
          "name": "",
          "type": "uint256"
        }
      ],
      "stateMutability": "view",
      "type": "function"
    },
    {
      "inputs": [],
      "name": "verifier",
      "outputs": [
        {
          "internalType": "contract UltraVerifier",
          "name": "",
          "type": "address"
        }
      ],
      "stateMutability": "view",
      "type": "function"
    }
  ],
  "transactionHash": "0x219875c89ef4f6e36d08de018ff1daa4061bc8180f66e889999f139c1bf248bf",
  "args": [
    "0xC828Db30a16d9A0938514952e84cdFcF081d736B"
  ],
  "numDeployments": 1,
  "solcInputHash": "a0de97021e577821177e5724d87a490c",
  "bytecode": "0x608060405260006002557f2beed396af382f285ec68b403f7d3a5cc58a820bffac0b636955ca7a83d5430360035534801561003957600080fd5b50604051613e74380380613e74833981016040819052610058916100c2565b604051610064906100b5565b604051809103906000f080158015610080573d6000803e3d6000fd5b50600080546001600160a01b039283166001600160a01b031991821617909155600180549390921692169190911790556100f2565b613796806106de83390190565b6000602082840312156100d457600080fd5b81516001600160a01b03811681146100eb57600080fd5b9392505050565b6105dd806101016000396000f3fe608060405234801561001057600080fd5b50600436106100675760003560e01c8063c45a766211610050578063c45a7662146100af578063cea069a2146100c4578063ebf0c717146100db57600080fd5b80632b7ac3f31461006c5780638da5cb5b1461009c575b600080fd5b60005461007f906001600160a01b031681565b6040516001600160a01b0390911681526020015b60405180910390f35b60015461007f906001600160a01b031681565b6100c26100bd36600461039d565b6100e4565b005b6100cd60025481565b604051908152602001610093565b6100cd60035481565b6001546001600160a01b03163314610128576040517fea8e4eb500000000000000000000000000000000000000000000000000000000815260040160405180910390fd5b600254831161014a57604051631a761d8b60e11b815260040160405180910390fd5b610155600a43610433565b831161017457604051631a761d8b60e11b815260040160405180910390fd5b43831061019457604051631a761d8b60e11b815260040160405180910390fd5b61019c61037e565b60006101a9600a86610433565b6101b490600161044c565b90505b8481116101e95780408282600a81106101d2576101d261045f565b6020020152806101e181610475565b9150506101b7565b5060007f30644e72e131a029b85045b68181585d2833e84879b9709143e1f593f00000016003548787600a8961021f9190610433565b61022a90600161044c565b8660405160200161023f95949392919061048e565b6040516020818303038152906040528051906020012060001c61026291906104e1565b60408051600180825281830190925291925060009190602080830190803683370190505090508160001b8160008151811061029f5761029f61045f565b60209081029190910101526000546040517fea50d0e40000000000000000000000000000000000000000000000000000000081526001600160a01b039091169063ea50d0e4906102f790889088908690600401610503565b602060405180830381865afa158015610314573d6000803e3d6000fd5b505050506040513d601f19601f82011682018060405250810190610338919061057e565b61036e576040517f923983b900000000000000000000000000000000000000000000000000000000815260040160405180910390fd5b5050506002929092555050600355565b604051806101400160405280600a906020820280368337509192915050565b600080600080606085870312156103b357600080fd5b8435935060208501359250604085013567ffffffffffffffff808211156103d957600080fd5b818701915087601f8301126103ed57600080fd5b8135818111156103fc57600080fd5b88602082850101111561040e57600080fd5b95989497505060200194505050565b634e487b7160e01b600052601160045260246000fd5b818103818111156104465761044661041d565b92915050565b808201808211156104465761044661041d565b634e487b7160e01b600052603260045260246000fd5b6000600182016104875761048761041d565b5060010190565b85815260006020866020840152856040840152846060840152608083018460005b600a8110156104cc578151835291830191908301906001016104af565b505050506101c0820190509695505050505050565b6000826104fe57634e487b7160e01b600052601260045260246000fd5b500690565b60408152826040820152828460608301376000606084830101526000601f19601f85011682016060810160206060858403016020860152818651808452608085019150602088019450600093505b808410156105715784518252938201936001939093019290820190610551565b5098975050505050505050565b60006020828403121561059057600080fd5b815180151581146105a057600080fd5b939250505056fea2646970667358221220cbb4ec243138287066144418fe833602098502ac81a9ebe1c70b696a2b446e0664736f6c63430008180033608060405234801561001057600080fd5b50622000006103805260016103a0527f1ded8980ae2bdd1a4222150e8598fc8c58f50577ca5a5ce3b2c87885fcd0b5236103c0527f30644cefbebe09202b4ef7f3ff53a4511d70ff06da772cc3785d6b74e05360816103e0527f24c162d309febaaa5207d93a1265e3e03590896d510e2a4ab4ba926a23821489610400527f0d0a310d40daf68f2affc2cf5e91c1a07f3451453cd8f6df576dc565efeb2a14610420527f15a878ac0ac8329a4fff68a8385362ee7380e3850374016aa6e352d59a03ae06610440527f019949bd2ff5b39beb5af0b804a1c1291baa9ee0a628197f97f6e9b52f1ac412610460527f1dbc55c75d025829eaf7d4097f5715518780f401f819a5ff5a5bd155de4ff005610480527f121f230779e355c42b2dbf1063c849b49c58ae3121459a532498c73f9d7864196104a0527f0de2e62e6a2bd0116eb940fa22878e0850b843f8d037d521f7f9e6c514417a886104c0527f28a376d352966f0f04e78d51e6fb6e209c2add52105f45f2b6476f3572116e9f6104e0527f1c38631a65c07b4ca1a1a059314367088bb2f05ffbfa000c0aac9bed93a240de610500527f28e919cee08d7e7790e05cccb2b2bd8708e37d3a8ee0bf4e9a1b0f5c9973b05b610520527f24c783d8ad50ed8ff70d7f7c8a63778453e7f85e4abff651d0c7eb912389abda610540527f299258970be4e409b69b740224509abad463816c514cd3cd138ab03bc06c2c8b610560527f120a8cd022925219042b5a8ef0367770a3f68ff19c8023e7742b9547f23347d4610580527f2a41c92fce06909078154d87bc6394ae7c108d0ec5b293b09ec3f6bc17a0de5c6105a0527f2c374dcdac5f08255280dee3e60064dd54e0ce155c10e25ee73a774d59e73ca36105c0527f243e2b22a0d1483d8fe55bd61401f8ce45031e420e9c32d34125233532e8b60e6105e0527f1b01c21b5e68590e37c4529b0d455171dd808ec6dbdb0947e42233f902e552aa610600527f2488e0934dab3854fbb692808a16d0caf847e4688e5e6b428d648880d8d5b6c7610620527f02f136658067c302b6c1b676f99c0442bca606342d2d18b8c660e401d24da99d610640527f2be2638875def1473d6402ea14c4b404920fbed596c5efde4d77c29634533902610660527f22d28e9066837125a347002a0864486148ab833d42f133924f58d2a31b5c2030610680527f296f675f47339ef60d0faa39d36ee041ae9efb84c706e1f97b55d24be9e923206106a0527f0e5be18bed6c3c5a6f88580a1daeb420faf9fe14d955a34404f8a2e26951b3e96106c0527f14a9f744a30afd03c7ec4ca43280b7fed02c968c5d9485ace28ae99124be219d6106e0527f21620582b2834bdd972ef7e97ea923d9d7991c0d1efabda603fb113a04a0275b610700527f1fa039dcae507410220e44d6ead1d8b00a0e86672db29b677b645cf20a6e9288610720527f218c8079f7a5ecfed303dfdb3ecef9f46ddb67da80334574671750ea03d196cf610740527f2a4210d63d9c500d633773ebadde546b03e0991e502210cf50f3676ec5d378c9610760527f18bc21703936eed565218dddd47cd59064a6010f84b92acfd2191e6e0f6e755c610780527f2d16edb48ac4d202f050aef7c40f974254079dc968133c1d03422a377b9df3366107a0527f11be047fb8cc1dcea1d65379582b9df475149e92a2032479ef63055bd2c5cbfd6107c0527f13fc100ad10d47cac6b1c042be5a2610996b5a1e35e76a3940c7482dc6b9acc06107e0527f0fd0ad1b967759d86953b6a986b48cba98c65b0796dfc53b2631c5dfdf275650610800527f1300213062cc35327a5a34a0df7ae3751213d10826f754dd604a94d5283d37cd610820527f20ed69b72acf9efc47c8078838c387fd6aa115e610395dbbb043e6ac401ee371610840527f0f539c74a6e9559eb78e2e63a685dae466dd2089cd61540fd2e4321cc2c9fc45610860527f03ce2b4a75105afa8c2b255999a85f1ed1801b1276b9ae4503f302bd343c1629610880527f0d8ebde8cb2f153ce1872faff2f7d539011487c24e933f1ea424610fb2af2caf6108a0527f237fa083e7cd3dd9f2742343582d943e6a0c1bc7c324470a49e75b994ebd785f6108c0527f25d82bc97260901660904e4e22d29ed6687eadb9332364471c015a92e20424386108e0527f25f3ce758c68140237e71caf94cd13b7f655365fbaac36d25810e8d577d27d01610900527f1ff19631b0d83ec189c2b4d720ea6bebb2240017fd014d28ff1213b6706f65d2610920527f2384be0a5b9484f45d21d935cd228328dbcc35afaac00cef073ad258f1855955610940527f0b9ba3bb3ec33d588ca054f7711682c7f89eb654a8de628bb54d91b7e8cc0cc7610960527f1d7df369b9dcf944acc57a36f1d9ee733188ad6f58e8752cd22377a4de12ec17610980527f2289757d189b31b266e3a68f825e58854a3a5e963fd3112677cf28c3f61868b26109a05260006109c08190526109e0527f260e01b251f6f1c7e7ff4e580791dee8ea51d87a358e038b4efe30fac09383c1610a00527f0118c4d5b837bcc2bc89b5b398b5974e9f5944073b32078b7e231fec938883b0610a20527f04fc6369f7110fe3d25156c1bb9a72859cf2a04641f99ba4ee413c80da6a5fe4610a40527f22febda3c0c0632a56475b4214e5615e11e6dd3f96e6cea2854a87d4dacc5e55610a60527f19c6dfb841091b14ab14ecc1145f527850fd246e940797d3f5fac783a376d0f0613300527f30644e72e131a029b85045b68181585d97816a916871ca8d3c208c16d87cfd47600161040051610420518382830984600386838609088583840914841693505050506104405161046051838283098460038683860908858384091484169350505050610480516104a0518382830984600386838609088583840914841693505050506104c0516104e051838283098460038683860908858384091484169350508160005280602052505061050051610520518382830984600386838609088583840914841693505050506105405161056051838283098460038683860908858384091484169350505050610580516105a0518382830984600386838609088583840914841693505050506105c0516105e05183828309846003868386090885838409148416935050505061060051610620518382830984600386838609088583840914841693505050506106405161066051838283098460038683860908858384091484169350505050610680516106a0518382830984600386838609088583840914841693505050506106c0516106e05183828309846003868386090885838409148416935050505061070051610720518382830984600386838609088583840914841693505050506107405161076051838283098460038683860908858384091484169350505050610780516107a0518382830984600386838609088583840914841693505050506107c0516107e05183828309846003868386090885838409148416935050505061080051610820518382830984600386838609088583840914841693505050506108405161086051838283098460038683860908858384091484169350505050610880516108a0518382830984600386838609088583840914841693505050506108c0516108e05183828309846003868386090885838409148416935050505061090051610920518382830984600386838609088583840914841693505050506109405161096051838283098460038683860908858384091484169350505050610980516109a05183828309846003868386090885838409148416935050505080610af557637e5769bf60e01b60005260046000fd5b5050612c9080610b066000396000f3fe608060405234801561001057600080fd5b50600436106100365760003560e01c8063937f6a101461003b578063ea50d0e41461006e575b600080fd5b6040517f4bfcb1ea0590f732c90b5ae0edaad882ccfc73feaa773aada91befacc299d84281526020015b60405180910390f35b61008161007c366004612b95565b610091565b6040519015158152602001610065565b622000006103805260016103a0527f1ded8980ae2bdd1a4222150e8598fc8c58f50577ca5a5ce3b2c87885fcd0b5236103c0527f30644cefbebe09202b4ef7f3ff53a4511d70ff06da772cc3785d6b74e05360816103e0527f24c162d309febaaa5207d93a1265e3e03590896d510e2a4ab4ba926a23821489610400527f0d0a310d40daf68f2affc2cf5e91c1a07f3451453cd8f6df576dc565efeb2a14610420527f15a878ac0ac8329a4fff68a8385362ee7380e3850374016aa6e352d59a03ae06610440527f019949bd2ff5b39beb5af0b804a1c1291baa9ee0a628197f97f6e9b52f1ac412610460527f1dbc55c75d025829eaf7d4097f5715518780f401f819a5ff5a5bd155de4ff005610480527f121f230779e355c42b2dbf1063c849b49c58ae3121459a532498c73f9d7864196104a0527f0de2e62e6a2bd0116eb940fa22878e0850b843f8d037d521f7f9e6c514417a886104c0527f28a376d352966f0f04e78d51e6fb6e209c2add52105f45f2b6476f3572116e9f6104e0527f1c38631a65c07b4ca1a1a059314367088bb2f05ffbfa000c0aac9bed93a240de610500527f28e919cee08d7e7790e05cccb2b2bd8708e37d3a8ee0bf4e9a1b0f5c9973b05b610520527f24c783d8ad50ed8ff70d7f7c8a63778453e7f85e4abff651d0c7eb912389abda610540527f299258970be4e409b69b740224509abad463816c514cd3cd138ab03bc06c2c8b610560527f120a8cd022925219042b5a8ef0367770a3f68ff19c8023e7742b9547f23347d4610580527f2a41c92fce06909078154d87bc6394ae7c108d0ec5b293b09ec3f6bc17a0de5c6105a0527f2c374dcdac5f08255280dee3e60064dd54e0ce155c10e25ee73a774d59e73ca36105c0527f243e2b22a0d1483d8fe55bd61401f8ce45031e420e9c32d34125233532e8b60e6105e0527f1b01c21b5e68590e37c4529b0d455171dd808ec6dbdb0947e42233f902e552aa610600527f2488e0934dab3854fbb692808a16d0caf847e4688e5e6b428d648880d8d5b6c7610620527f02f136658067c302b6c1b676f99c0442bca606342d2d18b8c660e401d24da99d610640527f2be2638875def1473d6402ea14c4b404920fbed596c5efde4d77c29634533902610660527f22d28e9066837125a347002a0864486148ab833d42f133924f58d2a31b5c2030610680527f296f675f47339ef60d0faa39d36ee041ae9efb84c706e1f97b55d24be9e923206106a0527f0e5be18bed6c3c5a6f88580a1daeb420faf9fe14d955a34404f8a2e26951b3e96106c0527f14a9f744a30afd03c7ec4ca43280b7fed02c968c5d9485ace28ae99124be219d6106e0527f21620582b2834bdd972ef7e97ea923d9d7991c0d1efabda603fb113a04a0275b610700527f1fa039dcae507410220e44d6ead1d8b00a0e86672db29b677b645cf20a6e9288610720527f218c8079f7a5ecfed303dfdb3ecef9f46ddb67da80334574671750ea03d196cf610740527f2a4210d63d9c500d633773ebadde546b03e0991e502210cf50f3676ec5d378c9610760527f18bc21703936eed565218dddd47cd59064a6010f84b92acfd2191e6e0f6e755c610780527f2d16edb48ac4d202f050aef7c40f974254079dc968133c1d03422a377b9df3366107a0527f11be047fb8cc1dcea1d65379582b9df475149e92a2032479ef63055bd2c5cbfd6107c0527f13fc100ad10d47cac6b1c042be5a2610996b5a1e35e76a3940c7482dc6b9acc06107e0527f0fd0ad1b967759d86953b6a986b48cba98c65b0796dfc53b2631c5dfdf275650610800527f1300213062cc35327a5a34a0df7ae3751213d10826f754dd604a94d5283d37cd610820527f20ed69b72acf9efc47c8078838c387fd6aa115e610395dbbb043e6ac401ee371610840527f0f539c74a6e9559eb78e2e63a685dae466dd2089cd61540fd2e4321cc2c9fc45610860527f03ce2b4a75105afa8c2b255999a85f1ed1801b1276b9ae4503f302bd343c1629610880527f0d8ebde8cb2f153ce1872faff2f7d539011487c24e933f1ea424610fb2af2caf6108a0527f237fa083e7cd3dd9f2742343582d943e6a0c1bc7c324470a49e75b994ebd785f6108c0527f25d82bc97260901660904e4e22d29ed6687eadb9332364471c015a92e20424386108e0527f25f3ce758c68140237e71caf94cd13b7f655365fbaac36d25810e8d577d27d01610900527f1ff19631b0d83ec189c2b4d720ea6bebb2240017fd014d28ff1213b6706f65d2610920527f2384be0a5b9484f45d21d935cd228328dbcc35afaac00cef073ad258f1855955610940527f0b9ba3bb3ec33d588ca054f7711682c7f89eb654a8de628bb54d91b7e8cc0cc7610960527f1d7df369b9dcf944acc57a36f1d9ee733188ad6f58e8752cd22377a4de12ec17610980527f2289757d189b31b266e3a68f825e58854a3a5e963fd3112677cf28c3f61868b26109a05260006109c08190526109e08190527f260e01b251f6f1c7e7ff4e580791dee8ea51d87a358e038b4efe30fac09383c1610a00527f0118c4d5b837bcc2bc89b5b398b5974e9f5944073b32078b7e231fec938883b0610a20527f04fc6369f7110fe3d25156c1bb9a72859cf2a04641f99ba4ee413c80da6a5fe4610a40527f22febda3c0c0632a56475b4214e5615e11e6dd3f96e6cea2854a87d4dacc5e55610a60527f19c6dfb841091b14ab14ecc1145f527850fd246e940797d3f5fac783a376d0f0613300526103a0518281146108a1576040517f7667dc9b000000000000000000000000000000000000000000000000000000008152600481018290526024810184905260440160405180910390fd5b7f30644e72e131a029b85045b68181585d97816a916871ca8d3c208c16d87cfd477f30644e72e131a029b85045b68181585d2833e84879b9709143e1f593f00000016024600435018281350661122052826020820135066112005282604082013506611260528260608201350661124052826080820135066112a0528260a082013506611280528260c0820135066112e0528260e0820135066112c05282610100820135066113205282610120820135066113005282610140820135066113605282610160820135066113405282610180820135066113a052826101a08201350661138052826101c0820135066113e052826101e0820135066113c05282610200820135066114205282610220820135066114005282610240820135066114605282610260820135066114405282610280820135066114a052826102a08201350661148052816102c08201350661160052816102e0820135066116205281610300820135066116405281610320820135066116605281610340820135066116805281610360820135066116a05281610380820135066116c052816103a0820135066116e052816103c08201350661170052816103e0820135066117205281610400820135066117405281610420820135066117605281610440820135066117805281610460820135066117a05281610480820135066117c052816104a0820135066117e052816104c08201350661180052816104e0820135066119605281610500820135066119805281610520820135066119a05281610540820135066119c052816105608201350661184052816105808201350661186052816105a08201350661188052816105c0820135066118a052816105e0820135066118c05281610600820135066118e05281610620820135066119005281610640820135066119205281610660820135066119405281610680820135066119e052816106a08201350661200052816106c08201350661202052816106e0820135066120405281610700820135066120605281610720820135066120805281610740820135066120a05281610760820135066120c05281610780820135066120e052816107a08201350661210052816107c08201350661212052826107e08201350661232052826108008201350661230052826108208201350661236052826108408201350661234052506109c05115610d1c576024803501806109e05160051b0190508035602082013560441b81019050604082013560881b81019050606082013560cc1b81019050608082013560a083013560441b8101905060c083013560881b8101905060e083013560cc1b8101905061010083013561012084013560441b8101905061014084013560881b8101905061016084013560cc1b810190506101808401356101a085013560441b810190506101c085013560881b810190506101e085013560cc1b810190508361340052826134205281613440528061346052868110878410168783108886101616610d16577feba9f4a60000000000000000000000000000000000000000000000000000000060005260046000fd5b50505050505b6103805160e01b6000526103a05160e01b60045260086000208061348052602480350160206103a05102808260206134800137600435602401915060c0826134a083013760e0016134802083810661266081905290925090508281800961268052828161268051096126a05250806000526112e0516020526112c051604052611320516060526113005160805260a0600020905081810661260052806000526001602053506021600090812082810661262052815261136051602052611340516040526113a0516060526113805160805260a09020818106612640819052828180096133205282816133205109613340528281613340510961336052806133805250806000526113e0516020526113c05160405261142051606052611400516080526114605160a0526114405160c0526114a05160e052611480516101005261012060002090508181066126c052806126e0525061260051612620516103c051600180856001602480350160206103a0510281018360058a0984600c8b0999505b81831015610edc57823585811085169450858a82089050858183018909975085818c01880996505084888209905084888b099950602083019250610e9d565b50505080610f0e577f374a972f0000000000000000000000000000000000000000000000000000000060005260046000fd5b50508161300052806130205250505050508081600161260051086126205109806103805160015b81811015610f4a578483840992508001610f35565b5050613100528181800990508181820961312052506126c05161038051819060015b81811015610f81578483840992508001610f6c565b50508061304052826001840382089050613300518084036103e051858286088684840992508687848808820990508684840992508687848808820990508687888686098808820990506103c051925086828609915086600188038708878485099450876001890389898b888d8b8c0909090896506130205194508493508782860994508488878709955085898388099650868a61312051890997508760206000526020805260206040528b8b8a0960605260028c036080528b60a0526020600060c0600060055afa611077577ff894a7bc0000000000000000000000000000000000000000000000000000000060005260046000fd5b60005198508b818a0990508b8b8a0998508b828a0991508b613120518a0998508b838a0992508b858a0998508b848a0993508b8a8a0998508b888a0997508b868a0998508b613020518d8b8c090998508b896130005109613060528b888b09613080528b848709613680528b8388096130a0528b826131005109613140528b8188096130c052505050505050505050505061264051506126005161262051828361190051840982611620510101846118e051850983611600510101098384611940518509836116605101018561192051860984611640510101098485868385096116a051096133805109858661198051870985611620510101876119605188098661160051010109925085866119c051870985611660510101876119a0518809866116405101010991508586878885870961208051096133805109870382089050856126405161338051096133805285868788613060518a0361208051086130c0510961338051098208905085612640516133805109613380528586878860018a036116a051086130a05109613380510982086135005250505050508061264051613380510961338052806117205161266051098182836120205161178051096116405108820890508161266051820990508182836120005161176051096116205108820890508161266051820990508182836119e0516117005109611600510882089050816118405183846126605161186051098586612680516118805109876126a0516118a05109080808826120c0518485612660516120e051098687612680516121005109886126a051612120510908080883846001612600510861262051098461262051866118c051870908935084818687612600518609860808925084838509935084856001612600510885099350846130a05161264051099250848385089350846116c0518509935084838603850893508481868761260051612060510961168051080892505050826130c05161332051098381850383089150836120a05183099150838461314051830983089150508261338051848386038508096135205250508061334051613380510961338052806116e0516116005109816117005161162051098261172051611640510983611740516116605109847f183227397098d014dc2822db40c0ac2e9419f4243cdcb848a1f0fac9f80000008687600389036117a0510888611760518a6116205161160051090909098586878889858a08880886088408611780510894505050505081828384856116605161160051086119e051870308611760510884600286036117a05108096126405109828384858685612040510887600189036117a051080985086117a05109613380510961354052505080613320516133805109613380526002810360038203826116005184036116205108836116205185036116405108846116405186036116605108856116605187036119e05108866133805188898888088a8b8b8a088c8a8e038e8c8d09080909099350868788612640516133805109898a8988088b8c8c8a088d8a8f038f8c8d090809090985089350868788613320516133805109898a8987088b8c8c89088d898f038f8b8c090809090985089350868788613340516133805109898a8986088b8c8c88088d888f038f8a8b090809090985089350505050836117c051820961356052505061336051613380518392500961338052806116205182036119e051088161204051612040510982611640516116405109836116e05185612040516116405109098485868384088785870888030886878788098889611620516119e0510861200051080908925050508261338051848561176051870360010884090990508261202051611640510883611640518503856116e05161204051090884858287611620518903612000510809868685090893505050828361264051613380510984856117605187036001088509099150826117e0518484840809613580525050806116205161162051098161164051611640510982611620518460118408098360048309915083600982099050836003840992508381850385848788611620516116205108612000510809089150508283846120205161164051088561164051611640510809840384856120005187036116205108850908915082613380518209905082836126405161338051098309915082611760518209905082611760518309915082836117e0518585850809613580510861358052505080613360516133805109613380528081611620516119e05109826120005161160051090881612020518303838461164051611620510985611660516116005109080882681000000000000000008209905082612040518403820890508282820890508261174051820990508268100000000000000000830991508283612000516119e05109830891508261172051848561166051611640510886038508098361176051858661204051612020510887038761166051880808099250836117005185858786860808096135c0525050612000518291506140009009816119e0518208905081614000820990508161164051820890508161400082099050816116205182089050816140008209905081611600518208905081611660518303820890508161174051820990508161400061202051098261200051820890508261400082099050826119e05182089050826140008209905082611660518208905082614000820990508261164051820890508261204051840382089050826117605182099050826117205184838508096135e0525050806126605161164051098161162051820890508161266051820990508161160051820890508161266051820990508161178051820890508082611660518403830891508161364052826116005184036119e05108836116605185036120405108848560018703840883098586848803600108830991508585876126405189858b61264051890908090861362052856126605161202051099450856120005186089450856126605186099450856119e0518608945085612660518609945085858703612040510894508561164051870361202051089150858687878903600108840987858903600108099150858487036116605108868760018903830882099050868760018903880887099550866126405184099250868284089250866126405184099250868684089250866126405184099250868184089250508161360052505083611620518503612000510892508361164051850385868488036001088609089250836117005161362051099150838461174051850983089150838461176051613640510983089150836116e0518309915083846117a051613600510983089150836135c05183089250836135e05184089250836118005184099250836133805184099250826135a05283613340516133805109613380525050508061368051826135a0518461358051866135605188613540518a61352051613500510808080808096136608190526126e0516136a08190526136c0919091526102e460043501610520816136e03750506105606136a020818106612700526000819052600160205381602160002006612720526002602053816021600020066127405260036020538160216000200661276052600460205381602160002006612780526005602053816021600020066127a0526006602053816021600020066127c0526007602053816021600020066127e0526008602053816021600020066128005260096020538160216000200661282052600a6020538160216000200661284052600b6020538160216000200661286052600c6020538160216000200661288052600d602053816021600020066128a052600e602053816021600020066128c052600f602053816021600020066128e05260106020538160216000200661290052601160205381602160002006612920526012602053816021600020066129405260136020538160216000200661296052601460205381602160002006612980526015602053816021600020066129a0526016602053816021600020066129c0526017602053816021600020066129e052601860205381602160002006612a0052601960205381602160002006612a2052601a60205381602160002006612a4052601b60205381602160002006612a6052601c60205381602160002006612a8052601d60205381602160002006612aa052601d6020535060216000908120828106612ac05281526123205160205261230051604052612360516060526123405160805260a08120829006612b00526113c0516113e0518482800985600387838609088683840914611ce8576328f6b59560e21b60005260046000fd5b50613160919091526131805261140051611420518482800985600387838609088683840914611d22576328f6b59560e21b60005260046000fd5b50816000528060205250506130405160405260406131a06060600060075afa90506040613160608061316060065afa8116905061144051611460518482830985600387838609088683840914611d83576328f6b59560e21b60005260046000fd5b50600091909152602052613040518290800960405260406131a06060600060075afa16604061316060808160065afa81169050611480516114a0518482830985600387838609088683840914611de4576328f6b59560e21b60005260046000fd5b50600091909152602052613040518290818180090960405260406131a06060600060075afa16604061316060808160065afa8116905061120051611220518482830985600387838609088683840914611e48576328f6b59560e21b60005260046000fd5b50816000528060205250508161270051836001612b0051080960405260406131a06060600060075afa16604061316060808160065afa8116905061124051611260518482830985600387838609088683840914611eb0576328f6b59560e21b60005260046000fd5b50816000528060205250508161272051836001612b0051080960405260406131a06060600060075afa16604061316060808160065afa81169050611280516112a0518482830985600387838609088683840914611f18576328f6b59560e21b60005260046000fd5b50816000528060205250508161274051836001612b0051080960405260406131a06060600060075afa16604061316060808160065afa811690506112c0516112e0518482830985600387838609088683840914611f80576328f6b59560e21b60005260046000fd5b50816000528060205250508161276051836001612b0051080960405260406131a06060600060075afa16604061316060808160065afa8116905061130051611320518482830985600387838609088683840914611fe8576328f6b59560e21b60005260046000fd5b50816000528060205250508161278051836001612b0051080960405260406131a06060600060075afa16604061316060808160065afa8116905061134051611360518482830985600387838609088683840914612050576328f6b59560e21b60005260046000fd5b5081600052806020525050816127a051836001612b0051080960405260406131a06060600060075afa16604061316060808160065afa81169050611380516113a05184828309856003878386090886838409146120b8576328f6b59560e21b60005260046000fd5b5081600052806020525050816127c051836001612b0051080960405260406131a06060600060075afa16604061316060808160065afa8116905061040051600052610420516020526127e05160405260406131a06060600060075afa16604061316060808160065afa8116905061044051600052610460516020526128005160405260406131a06060600060075afa16604061316060808160065afa81169050610480516000526104a0516020526128205160405260406131a06060600060075afa16604061316060808160065afa811690506104c0516000526104e0516020526128405160405260406131a06060600060075afa16604061316060808160065afa8116905061050051600052610520516020526128605160405260406131a06060600060075afa16604061316060808160065afa8116905061054051600052610560516020526128805160405260406131a06060600060075afa16604061316060808160065afa81169050610580516000526105a0516020526128a05160405260406131a06060600060075afa16604061316060808160065afa811690506105c0516000526105e0516020526128c05160405260406131a06060600060075afa16604061316060808160065afa8116905061060051600052610620516020526128e05160405260406131a06060600060075afa16604061316060808160065afa8116905061064051600052610660516020526129005160405260406131a06060600060075afa16604061316060808160065afa81169050610680516000526106a0516020526129205160405260406131a06060600060075afa16604061316060808160065afa811690506106c0516000526106e0516020526129405160405260406131a06060600060075afa16604061316060808160065afa8116905061070051600052610720516020526129605160405260406131a06060600060075afa16604061316060808160065afa8116905061074051600052610760516020526129805160405260406131a06060600060075afa16604061316060808160065afa81169050610780516000526107a051602052816129a051836001612b0051080960405260406131a06060600060075afa16604061316060808160065afa811690506107c0516000526107e051602052816129c051836001612b0051080960405260406131a06060600060075afa16604061316060808160065afa811690506108005160005261082051602052816129e051836001612b0051080960405260406131a06060600060075afa16604061316060808160065afa81169050610840516000526108605160205281612a0051836001612b0051080960405260406131a06060600060075afa16604061316060808160065afa81169050610880516000526108a051602052612a205160405260406131a06060600060075afa16604061316060808160065afa811690506108c0516000526108e051602052612a405160405260406131a06060600060075afa16604061316060808160065afa811690506109005160005261092051602052612a605160405260406131a06060600060075afa16604061316060808160065afa811690506109405160005261096051602052612a805160405260406131a06060600060075afa16604061316060808160065afa81169050610980516000526109a051602052612aa05160405260406131a06060600060075afa16604061316060808160065afa8116905081826116005184612b00516119e051090861270051098283846116205186612b00516120005109086127205109820890508283846116405186612b00516120205109086127405109820890508283846116605186612b00516120405109086127605109820890508283846116805186612b00516120605109086127805109820890508283846116a05186612b00516120805109086127a05109820890508283846116c05186612b00516120a05109086127c051098208905082836116e0516127e051098208905082836117005161280051098208905082836117205161282051098208905082836117405161284051098208905082836117605161286051098208905082836117805161288051098208905082836117a0516128a051098208905082836117c0516128c051098208905082836117e0516128e051098208905082836118005161290051098208905082836119605161292051098208905082836119805161294051098208905082836119a05161296051098208905082836119c0516129805109820890508283846118405186612b00516120c05109086129a05109820890508283846118605186612b00516120e05109086129c05109820890508283846118805186612b00516121005109086129e05109820890508283846118a05186612b0051612120510908612a0051098208905082836118c051612a2051098208905082836118e051612a40510982089050828361190051612a60510982089050828361192051612a80510982089050828361194051612aa0510982089050826136605182089050600160005260026020528083036040525060406131a06060600060075afa16604061316060808160065afa1680612854577f4e7197630000000000000000000000000000000000000000000000000000000060005260046000fd5b612b00516126c0516123005161232051868283098760038983860908888384091461288a576328f6b59560e21b60005260046000fd5b50816000528060205250508060405260406131a06060600060075afa92506040613160608061316060065afa83169250612340516123605186828309876003898386090888838409146128e8576328f6b59560e21b60005260046000fd5b5081600052806020525050836103c05185838509096040525060406131a06060600060075afa821691506040613220608061316060065afa8216915061230051600052612320516020526123405160405261236051606052806080526040806060604060075afa8216915060406131e06080600060065afa82169150613200518403613200526109c05115612a4957613400516134205185828309866003888386090887838409146129a5576328f6b59560e21b60005260046000fd5b50600091909152602052828180096040526040606080600060075afa82169150613440516134605185828309866003888386090887838409146129f3576328f6b59560e21b60005260046000fd5b50600091825260205260409060608160075afa821691506132205160a0526132405160c05260406132206080606060065afa821691506131e0516040526132005160605260406131e06080600060065afa821691505b5080612a79577f01882d810000000000000000000000000000000000000000000000000000000060005260046000fd5b61322051600052613240516020527f198e9393920d483a7260bfb731fb5d25f1aa493335a9e71297e485b7aef312c26040527f1800deef121f1e76426a00665e5c4479674322d4f75edadd46debd5cd992f6ed6060527f090689d0585ff075ec9e99ad690c3395bc4b313370b38ef355acdadcd122975b6080527f12c85ea5db8c6deb4aab71808dcb408fe3d1e7690c43d37b4ce6cc0166fa7daa60a0526131e05160c0526132005160e052610a005161010052610a205161012052610a405161014052610a60516101605260206000610180600060085afa90506000518116612b87577fd71fd2630000000000000000000000000000000000000000000000000000000060005260046000fd5b505050600160005260206000f35b60008060008060408587031215612bab57600080fd5b843567ffffffffffffffff80821115612bc357600080fd5b818701915087601f830112612bd757600080fd5b813581811115612be657600080fd5b886020828501011115612bf857600080fd5b602092830196509450908601359080821115612c1357600080fd5b818701915087601f830112612c2757600080fd5b813581811115612c3657600080fd5b8860208260051b8501011115612c4b57600080fd5b9598949750506020019450505056fea2646970667358221220132996762f82e56003564dcc8006283678d904c8ecfd94f363db1180471a76c664736f6c63430008180033",
  "devdoc": {
    "kind": "dev",
    "methods": {},
    "version": 1
  },
  "userdoc": {
    "kind": "user",
    "methods": {},
    "version": 1
  },
  "storageLayout": {
    "storage": [
      {
        "astId": 18,
        "contract": "contracts/Rollup.sol:Rollup",
        "label": "verifier",
        "offset": 0,
        "slot": "0",
        "type": "t_contract(UltraVerifier)1021"
      },
      {
        "astId": 20,
        "contract": "contracts/Rollup.sol:Rollup",
        "label": "owner",
        "offset": 0,
        "slot": "1",
        "type": "t_address"
      },
      {
        "astId": 23,
        "contract": "contracts/Rollup.sol:Rollup",
        "label": "last_committed_blocknumber",
        "offset": 0,
        "slot": "2",
        "type": "t_uint256"
      },
      {
        "astId": 26,
        "contract": "contracts/Rollup.sol:Rollup",
        "label": "root",
        "offset": 0,
        "slot": "3",
        "type": "t_uint256"
      }
    ],
    "types": {
      "t_address": {
        "encoding": "inplace",
        "label": "address",
        "numberOfBytes": "20"
      },
      "t_contract(UltraVerifier)1021": {
        "encoding": "inplace",
        "label": "contract UltraVerifier",
        "numberOfBytes": "20"
      },
      "t_uint256": {
        "encoding": "inplace",
        "label": "uint256",
        "numberOfBytes": "32"
      }
    }
  }
}